:0200000280007C
:10000000D0A50720E11D0800DD1D0800DD1D08004A
:10001000DD1D0800DD1D0800DD1D080000000000DA
:10002000000000000000000000000000CD200800DB
:10003000DD1D08000000000049210800852108009E
:10004000DD1D0800DD1D0800DD1D0800DD1D0800A8
:10005000DD1D0800DD1D0800DD1D0800DD1D080098
:10006000DD1D0800DD1D080000000000C9190800A2
:10007000DD190800F1190800051A08000000000049
:100080000000000099350800DD1D0800DD1D080096
:10009000DD1D0800DD1D0800DD1D0800DD1D080058
:1000A000DD1D080000000000DD1D0800DD1D08004A
:1000B000DD1D0800DD1D0800DD1D0800DD1D080038
:1000C000DD1D0800DD1D0800DD1D0800DD1D080028
:1000D000DD1D0800DD1D0800DD1D0800DD1D080018
:1000E000DD1D0800DD1D0800DD1D0800DD1D080008
:1000F000DD1D080010B5054C237833B9044B13B14E
:100100000448AFF300800123237010BDF0010720E5
:10011000000000008472080008B5064B1BB10648B9
:100120000649AFF300800648036813B1054B03B1DD
:10013000984708BD0000000084720800F401072001
:10014000847208000000000010B5084C2046002111
:10015000074B9847074B186020460021064B9847ED
:10016000064B1A6801321A6010BD00BF000008403B
:10017000990908009885072089090800A0850720AB
:1001800010B50020074B98471B20074B9847074C9A
:10019000204600210222064B984720460021054BAD
:1001A000984710BD591B0800011B080000000840BB
:1001B000650908008109080030B583B00C200E4B9A
:1001C00098470E4C20464FF0006101220C4B984797
:1001D0000C4B009320460C214FF0006240230A4D47
:1001E000A84720464FF00061084B98474FF48052D3
:1001F000074B1A6003B030BD011B080000100E4011
:100200009D160800490108008D190800B117080063
:1002100000E100E010B5084C20460021074B98474C
:10022000074B186020460021064B9847064B1A687A
:1002300001321A6010BD00BF008008409909080013
:10024000AC85072089090800A485072010B5002087
:10025000074B98472120074B9847074C2046002121
:100260000222064B984720460021054B984710BDB7
:10027000591B0800011B08000080084065090800A0
:100280008109080030B583B00E200E4B98470E4C04
:1002900020464FF4807101220C4B98470C4B009381
:1002A00020460E214FF4807240230A4DA847204675
:1002B0004FF48071084B98474FF48042074B1A6007
:1002C00003B030BD011B080000140E409D1608004D
:1002D000150208008D190800B117080000E100E0C0
:1002E00038B50D4903240C600B224A600022CA6015
:1002F00044F61F620A61094D2846094B9847094890
:100300004FF080514FF48072074B984728462146A2
:10031000064B984738BD00BF6C8507200040094058
:10032000151C080000120E405D1608003D1D080057
:1003300038B50C4902240C600B224A600022CA60C6
:1003400044F61F620A61084D2846084B9847084842
:100350004FF080514022074B984728462146064BD4
:10036000984738BD4485072000400940151C080007
:1003700000120E405D1608003D1D080030B585B026
:1003800024200D4B98470D4C204603210C4DA847C7
:1003900020460221A8470B4B0193002302930A4BEE
:1003A0000393204601A9094B9847094B9847094BED
:1003B000984705B030BD00BF011B08000040094050
:1003C000491D08000E420F0000BD0105D51B0800A5
:1003D000E10208003103080008B50246024803495B
:1003E000034B984708BD00BF004009406C850720BB
:1003F000191D080008B5024602480349034B9847F7
:1004000008BD00BF0040094044850720191D0800B1
:1004100030B585B0124C20464FF000614FF4407269
:100420000023104DA84708200F4B98470F4B01930E
:100430004FF4E13302934FF4006303934FF480735E
:10044000636663656362C4F88030236F23F480734E
:100450002367074801A9074B984705B030BD00BF87
:10046000000E0E40F9160800011B080000BD010532
:1004700000080E40551D080070B582B0054B984726
:1004800002AC44F8040D3226034D20463146A847FD
:10049000FBE700BF692B0800B12D080070B51646B8
:1004A0001D460A4B18600A4C08460A49A0470A4BE9
:1004B00098470A4B186030460649A047084B9847B2
:1004C000084B1860084B1D6070BD00BF100207206C
:1004D0008D6B080000007A44656F08001402072045
:1004E000196F0800180207200C0207200000000006
:1004F00070B50446924B1B686BB9924B98476AA340
:10050000D3E90023904DA847002800F04C8140F229
:10051000DC508E4B98478A4B1B68022B40F03B8186
:100520002046884B984704460D4661A3D3E9002333
:10053000874EB04760B1204629465FA3D3E9002328
:10054000814EB04720B140F26E50804B984722E177
:10055000204629465AA3D3E900237D4EB04760B117
:100560002046294658A3D3E90023774EB04720B14F
:1005700040F25A50754B98470DE12046294654A346
:10058000D3E90023724EB04760B12046294652A3FA
:10059000D3E900236C4EB04720B140F246506B4B7C
:1005A0009847F8E0204629464DA3D3E90023684E3A
:1005B000B04760B1204629464BA3D3E90023624EE1
:1005C000B04720B140F23250604B9847E3E02046FC
:1005D000294647A3D3E900235D4EB04760B12046CA
:1005E000294645A3D3E90023574EB04720B140F236
:1005F0001E50564B9847CEE02046294640A3D3E9EB
:100600000023534EB04760B1204629463EA3D3E9AC
:1006100000234D4EB04720B140F20A504B4B984753
:10062000B9E0204629463AA3D3E90023484EB04713
:1006300060B12046294638A3D3E90023424EB04793
:1006400020B140F2F640414B9847A4E020462946AD
:1006500033A3D3E900233E4EB04760B1204629467C
:1006600031A3D3E90023384EB04720B140F2E24035
:10067000364B98478FE0204629462DA3D3E9002327
:10068000334EB047002865D0204629462AA3D3E937
:1006900000232D4EB04700285CD040F2CE402B4BBB
:1006A000984778E0AFF300809CC420B07268913F17
:1006B0003BDF4F8D976E923F1904560E2DB29D3F32
:1006C000B81E85EB51B89E3F295C8FC2F528AC3F20
:1006D00079E9263108ACAC3FC3F5285C8FC2B53F41
:1006E0006ABC74931804B63FFCA9F1D24D62C03FB6
:1006F000508D976E1283C03FD7A3703D0AD7C33F7A
:100700002B8716D9CEF7C33FB29DEFA7C64BC73F85
:10071000068195438B6CC73F295C8FC2F528CC3F7F
:100720007D3F355EBA49CC3F4A0C022B8716D13F3C
:10073000F4FDD478E926D13FC74B37894160D53FD6
:100740004402072045630800E5680800F503080037
:10075000F96808002046294613A3D3E90023164E62
:10076000B04760B12046294611A3D3E90023134EB8
:10077000B04720B140F2BA40114B98470BE02046F9
:1007800029460BA3D3E900230E4CA04758B14FF4E0
:1007900096600B4B98470C4B1B68012B03D140F222
:1007A000A460074B984770BD713D0AD7A370D53F31
:1007B000022B8716D9CED73FF9680800E5680800F4
:1007C000F50308000D69080044020720AFF300801C
:1007D0002DE9F04F83B0434B98470190002501A8C5
:1007E0003221414B9847414BD3F8009048460021B5
:1007F0003F4B984700285ED1DFF808B13D4B1868A1
:100800003D4B9847CBF81400ABF104040BF11406F0
:10081000DFF834A1DFF80881384F2846D04754F874
:10082000041FC047B847B442F8D1354A82FB0023C1
:10083000A3EBE0755A46536842F8043BB242FAD142
:10084000304B00225A61DFF800812846C0472E4B0A
:1008500018602E492E4B984701462E4E4846B04709
:1008600004462D4B18602D4B1860DFF8E0A02C4F8C
:10087000DAF80010B8478146CAF800002046214641
:10088000B047284E2849B047824648461B4B9847F8
:10089000C0472649B04701462046B8470146504662
:1008A000B8472349B047234B18601849B047224B3B
:1008B0009847044609E01F4B00221A60124B1A6049
:1008C0001E481F4B9847002425461A4B18681C4B9E
:1008D00098472046054B19680F4B1A682B46194C50
:1008E000A0477CE7692B0800B12D080028020720EB
:1008F000B56E080094850720DD6A0800196F0800AE
:10090000ABAAAA2A2C0207202002072000007A4462
:10091000F56C080079690800480207201C020720CE
:100920007D6908008D6B0800C633083F0B89973C32
:1009300017D9AE3F4C020720656F08000080BB440A
:10094000F10408009D040800E56A0800240207205D
:10095000024B1860024B1960704700BF2802072045
:100960004402072010B489014318022444504FF078
:10097000FF319962196A5A605DF8044B704700BFF5
:10098000C0F8C410704700BF890105234350704769
:10099000890102234350704700EB811108697047B9
:1009A00010B50020094B98471F20094B9847094C68
:1009B000204601210022084B984720460021074B82
:1009C000984720460121064B984710BD591B080047
:1009D000011B080000400840650908008109080063
:1009E000910908002DE9F04F83B0264B98470190FC
:1009F000DFF8D080244F002601A80621234B98471A
:100A0000234B186808B3234DA847DFF8ACA0414634
:100A1000D047214C214B1968A0473946A047204BAD
:100A20001860DFF890901F4B1868A84783461E4B4C
:100A30001868A84701465846D0473946A047D9F814
:100A400000101A4B9847C9F80000154B1C68204647
:100A50003146174B98470028CED0164B1D682846C4
:100A60003146134B98470028C6D020462946124BE2
:100A700098473946084B9847104B9847104B1860D9
:100A8000BAE700BF692B080000007A44B12D0800C6
:100A9000A0850720DD6A08008D6B08002C01072067
:100AA0005002072098850720300107207D69080043
:100AB000056F08009C850720F56C0800196F080079
:100AC000B8850720000010422DE9F04F83B0264B77
:100AD00098470190DFF8D080244F002601A8062116
:100AE000234B9847234B186808B3234DA847DFF8DA
:100AF000ACA04146D047214C214B1968A04739464C
:100B0000A047204B1860DFF890901F4B1868A8474B
:100B100083461E4B1868A84701465846D0473946B9
:100B2000A047D9F800101A4B9847C9F80000154B98
:100B30001C6820463146174B98470028CED0164BEC
:100B40001D6828463146134B98470028C6D02046DA
:100B50002946124B98473946084B9847104B9847FF
:100B6000104B1860BAE700BF692B080000007A44F8
:100B7000B12D0800A4850720DD6A08008D6B0800F0
:100B80003401072054020720AC85072038010720D4
:100B90007D690800056F0800A8850720F56C08002E
:100BA000196F080094850720000010422DE9F04FCE
:100BB00083B0A74B98470190A64CDFF8C892DFF8A6
:100BC000C882A54EA54DA64B9847A64F3860A64BA8
:100BD0009847A64B18603B68A3F24A225D2A13D8B7
:100BE000A0F51572532A0FD8DFF8A0A20021CAF889
:100BF00000104FF0000B58469D4B98475846DAF8C6
:100C000000109C4B98471EE140F21452904211D9BB
:100C100040F25D2293420DD9DFF870A20221CAF89A
:100C200000102046924B98472046DAF80010914B6E
:100C3000984708E10A280DD8DFF850A20121CAF828
:100C4000001020468A4B98472046DAF80010894B5E
:100C50009847F8E0A3F20D32442A11D8A0F23D5291
:100C60001C2A0DD8DFF824A20221CAF800108248FD
:100C70007F4B98472046DAF800107E4B9847E2E019
:100C8000A3F25D32B22A11D8A0F23D521C2A0DD82F
:100C9000DFF8F8A10221CAF800102846744B9847E3
:100CA0002046DAF80010734B9847CCE0A3F21B42C1
:100CB000B2F59F7F11D8A0F23D521C2A0DD8DFF863
:100CC000CCA10221CAF800103046694B9847204653
:100CD000DAF80010674B9847B5E0A3F23D521C2AA2
:100CE00036D8A0F2B1428A2A0DD8DFF8A0A102219D
:100CF000CAF8001061485E4B98472046DAF80010A9
:100D00005C4B98479FE0A0F22132B2F5C27F0DD82C
:100D1000DFF878A10221CAF800104046544B9847EA
:100D20002046DAF80010534B98478CE0A0F263227B
:100D3000B22A0DD8DFF854A10221CAF800102046CB
:100D40004B4B98474846DAF800104A4B98477AE0F0
:100D5000A3F2F512582A11D8A0F23D521C2A0DD840
:100D6000DFF828A10221CAF800102046404B98471E
:100D70004148DAF800103F4B984764E0A3F22D1287
:100D8000BC2A11D8A0F23D521C2A0DD8DFF8FCA0D5
:100D90000221CAF800102046354B98472846DAF859
:100DA0000010344B98474EE0A3F16502BC2A11D8DD
:100DB000A0F23D521C2A0DD8DFF8D0A00221CAF8BB
:100DC000001020462A4B98473046DAF80010294B8D
:100DD000984738E0592B36D8A0F23D531C2B0DD83C
:100DE000DFF8A8A00221CAF800102046204B98473F
:100DF0002248DAF800101F4B984724E0A0F2E933AC
:100E0000B3F5A47F0DD8DFF884A00221CAF8001042
:100E10002046174B98474046DAF80010154B984784
:100E200011E0A0F26320B0F5BD7F0CD8DFF85CA024
:100E30000221CAF8001020460D4B98474846DAF8C0
:100E400000100C4B984701A864210D4B9847BAE657
:100E5000692B0800CDCC4C3EB81E853E8FC2753E36
:100E600049130800B485072069130800B0850720DE
:100E7000C512080051090800AE47613E295C8F3E4B
:100E8000B12D08000AD7A33E9A99993E580207202F
:100E9000F8B506468C4B1B686BB98C4B984768A31A
:100EA000D3E900238A4CA047002800F0428140F299
:100EB000DC50884B9847844B1B68022B40F03181F3
:100EC0003046824B984704460D465FA3D3E9002382
:100ED000814FB84760B1204629465DA3D3E900237E
:100EE0007B4FB84720B140F26E507A4B984718E1DB
:100EF0002046294656A3D3E90023774FB84760B16F
:100F00002046294654A3D3E90023714FB84720B1A6
:100F100040F25A506F4B984703E12046294650A3B0
:100F2000D3E900236C4FB84760B1204629464EA351
:100F3000D3E90023664FB84720B140F24650654BD5
:100F40009847EEE02046294649A3D3E90023624FA3
:100F5000B84760B12046294647A3D3E900235C4F38
:100F6000B84720B140F232505A4B9847D9E020465A
:100F7000294643A3D3E90023574FB84760B1204621
:100F8000294641A3D3E90023514FB84720B140F28D
:100F90001E50504B9847C4E0204629463CA3D3E955
:100FA00000234D4FB84760B1204629463AA3D3E904
:100FB0000023474FB84720B140F20A50454B9847AD
:100FC000AFE02046294636A3D3E90023424FB84775
:100FD00060B12046294634A3D3E900233C4FB847EB
:100FE00020B140F2F6403B4B98479AE02046294614
:100FF0002FA3D3E90023384FB84750B130464FF004
:101000007A51364B984720B140F2E240314B984735
:1010100087E02046294628A3D3E900232E4EB04777
:1010200000285DD02046294625A3D3E90023284E79
:10103000B047002854D040F2CE40264B984770E08D
:10104000FCA9F1D24D62903F9CC420B07268913FE0
:1010500039B4C876BE9F9A3F4C37894160E5A03FBE
:101060009CC420B07268A13F83C0CAA145B6B33FFB
:101070002B8716D9CEF7B33F4260E5D022DBB93FCC
:10108000E9263108AC1CBA3FDF4F8D976E12C33F83
:10109000333333333333C33FA245B6F3FDD4C83FB4
:1010A000F6285C8FC2F5C83F894160E5D022CB3F6E
:1010B000DD2406819543CB3FAAF1D24D6210D03F8B
:1010C000295C8FC2F528D43F6402072045630800DD
:1010D000E5680800D9030800F9680800DD6E08001B
:1010E0002046294614A3D3E90023194EB04760B126
:1010F0002046294612A3D3E90023164EB04720B15B
:1011000040F2BA40144B98470BE0204629460EA304
:10111000D3E90023114CA04758B14FF496600E4B11
:1011200098470F4B1B68012B03D140F2A4600A4B78
:101130009847F8BDAFF30080D34D62105839D43FC3
:10114000A8C64B378941D83F52B81E85EB51D83FCE
:10115000F9680800E5680800D90308000D6908006F
:1011600064020720AFF300802DE9F04F83B03C4BC1
:1011700098470190002501A832213A4B98473A4BF5
:10118000D3F8009048460021384B9847002859D1A1
:10119000DFF8ECB0364B1868364B9847CBF81400A4
:1011A000ABF104040BF11406DFF810A1DFF8EC80BA
:1011B000314F2846D04754F8041FC047B847B442BF
:1011C000F8D12E4A82FB0023A3EBE0755B465A68F8
:1011D00043F8042BB342FAD1294B00225A61DFF8BD
:1011E000DC802846C047274B18602749274B984783
:1011F0000146274E4846B0470446264B1860264B0A
:101200001860DFF8BCA0254FDAF80010B847814617
:10121000CAF8000020462146B047214E2149B04778
:1012200082464846144B9847C0471F49B04701467D
:101230002046B84701465046B8471C49B0471C4BAA
:10124000186008E01A4B00221A600E4B1A60194809
:10125000194B98470025164B1868174B98478AE793
:10126000692B0800B12D08008C020720B56E08001C
:10127000B8850720DD6A0800196F0800ABAAAA2A02
:10128000700207206802072000007A44F56C08000D
:10129000796908005C020720880207207D69080040
:1012A0008D6B0800FF26FC3F05ACCA3C4F408B3FCE
:1012B0006C0207200080BB44910E0800E56A08001C
:1012C00060020720024B1860024B1960704700BF94
:1012D0008C0207206402072038B52520114B98475F
:1012E000114C20461149124A0823124DA8472046A6
:1012F00000214FF4401201230F4DA8472046002142
:101300000E4B9847204607210D4DA8472046062141
:10131000A84720460521A847204600210A46094B38
:10132000984738BD011B080000000C40007A030AF2
:1013300040420F00C515080019160800F9150800ED
:10134000411608000916080010B5044C2046044B4D
:10135000984720460721034B984710BD00000C40DA
:10136000391608004D16080010B5044C2046044BF1
:10137000984720460621034B984710BD00000C40BB
:10138000391608004D16080010B50E480E4B984748
:1013900000203E210D4B98470D4CA0470028FCD063
:1013A0000C4B98470C4A0D4B9A620D4CA0470028F5
:1013B000FCD010200B4B98470B4B98470148024B31
:1013C000984710BD00BD0105A50007207D1A080043
:1013D000D11A0800E11A0800013F0D2000060E4056
:1013E000F11A0800191A0800911E08002DE9F04FA3
:1013F00083B005469046002A47D04E1C254F264C08
:10140000DFF8A8A0DFF894B006F1FF3900230193BC
:10141000224B9D4206D158464946214B9847002809
:10142000F9D119E01F4B9D4209D19946484601A9BF
:10143000A0470028FAD1019B06F8013C17E01A4B9F
:101440009D4209D19946484601A9A0470028FAD1F2
:10145000019B06F8013C14E0554508D1504601A90E
:10146000A0470028FAD1019B06F8013C09E0BD42E3
:1014700007D1384601A9A0470028FAD1019B06F8F8
:10148000013C0136B8F10108BED1002003B0BDE82F
:10149000F08F00BF00400A40C51D080000080E4044
:1014A0009D1D08000080094000C0094000000A405E
:1014B0002DE9F0410C46904660B9002A0EDD8F18E8
:1014C000094E0A4D306821462B6898470134BC42CA
:1014D000F8D106E04FF0FF30BDE8F0810020BDE814
:1014E000F0814046BDE8F081C4850720BC85072017
:1014F0002DE9F0410E461546013802280FD892B169
:101500000024DFF83C800D4FD8F80000315D3B68C7
:10151000984700280ADB0134A542F5D10AE04FF0D4
:10152000FF30BDE8F0810020BDE8F0814FF0FF30D2
:10153000BDE8F0812046BDE8F08100BFC0850720EE
:10154000C485072010B54FF40042174B5A600B209A
:10155000164CA0470C20A0470D20A0470E20A04706
:101560003B204FF06051124CA04755204FF0605186
:10157000A04756204FF06051A04768200D49A04772
:101580005C200D49A0470D484FF440714FF00062B8
:101590000B4B98472B204FF00061A0472A204FF0BB
:1015A0000061A04710BD00BF501A0E40011B08008B
:1015B000C11708007900002801000028000E0E4025
:1015C0009518080030B4012404600024446040F2FF
:1015D0000225C0F82051C0F80441C0F81441456804
:1015E0002B435200B1FBF2F14D1E2D02ADB22B4345
:1015F0004360204630BC7047436823F010034360CB
:10160000436819434160704743681943D201D3B21C
:1016100019434160704700BF10B444682243090673
:1016200001F0706422431B0703F040531A434260E9
:101630005DF8044B704700BF02230360704700BF92
:10164000012303FA01F10161704700BF0F299ABF1E
:10165000143150F821000020704700BF4264B1F1FE
:10166000805F16D004D8C1B1B1F1006F0AD013E089
:10167000B1F1405F11D0B1F1605F0ED0B1F1205FE8
:101680000AD17047036F016F0B4023EA020303671F
:1016900002E0036F1343036742607047416412F036
:1016A000010F14BF4166016612F00A0F14BF0162F8
:1016B000416212F0020F02D0C0F8801004E012F074
:1016C000080F18BFC0F8841041610160704700BF67
:1016D00010B44164019C0CB1416600E001660BB19D
:1016E000016500E041650AB1016300E04163016109
:1016F00001605DF8044B7047F0B583B007460C46B7
:1017000016461D46B1F1205F1AD006D8B1F1006F20
:101710000AD0B1F1805F07D028E0B1F1405F15D069
:10172000B1F1605F12D021E0384621463246114BBC
:10173000984715F0010F14BF7E663E66012016E043
:1017400011461A460C4B9847012010E005F00103A2
:10175000009338463146B4F1605F14BF0022012285
:10176000C5F38003054CA047012000E0002003B032
:10177000F0BD00BF5D1608009D160800D1160800D8
:1017800012F0100F10D0C0F8B01012F0200F14BFDC
:10179000C0F8D410C0F8D01012F0400F14BFC0F839
:1017A000C010C0F8C4107047C0F8B410704700BF34
:1017B000C36C0164704700BFC06C7047806C704799
:1017C00070B582B00D46440904F5001404F20774A4
:1017D000660201F0F044B4F1205F30D006D8B4F1D5
:1017E000006F0AD0B4F1805F18D049E0B4F1405FD7
:1017F00030D0B4F1605F2DD042E000F01F00012432
:10180000844030464FF0006122461F4B984715F048
:10181000010F14BF74663466012032E000F01F002F
:101820000124844030464FF080512246164B9847A1
:1018300015F0010F14BF74663466012021E000F03A
:101840001F010124304604FA01F12A460F4B984744
:10185000204616E000F01F01012405F0605205EA61
:1018600004030093304604FA01F1B2F1605F14BF43
:1018700000220122C5F38003054DA847204600E061
:10188000002002B070BD00BF5D1608009D16080064
:10189000D1160800F0B583B007460E46154602F093
:1018A000F044B4F1205F26D006D8B4F1006F0AD01E
:1018B000B4F1805F13D034E0B4F1405F1FD0B4F1D5
:1018C000605F1CD02DE04FF000613246164B984708
:1018D00015F0010F14BF7E663E66012022E04FF036
:1018E00080513246104B984715F0010F14BF7E66A9
:1018F0003E66012016E00D4B9847012012E005F0EE
:10190000605205F00103009338463146B2F1605F42
:1019100014BF00220122C5F38003054CA04701201B
:1019200000E0002003B0F0BD5D1608009D16080021
:10193000D11608002DE9F04104460E46104B984799
:10194000054620460F4B9847054017D00E4F07F12C
:101950000C046C3754F80C3CB3420AD154F8081C00
:10196000294206D023683046984754F8083C25EAB7
:101970000305BC4202D01034002DEBD1BDE8F0814C
:10198000B9170800BD17080094020720F8B50B4CE2
:101990002468062C10D80A4F2601BD19B9516A6077
:1019A000AB600699E960013404490C6011461A469F
:1019B000044B98470020F8BD0120F8BD9002072095
:1019C000940207208117080008B502480B21024B3A
:1019D000984708BD000E0E403519080008B50248AA
:1019E0000C21024B984708BD00100E403519080025
:1019F00008B502480D21024B984708BD00120E4061
:101A00003519080008B502480E21024B984708BD59
:101A100000140E4035190800174B1A6B22F07002A3
:101A2000104318639B6E13F0080F09D14FF4006345
:101A3000114901E0013B19D08A6E12F0080FF9D06C
:101A40000D4B1A6B22F0030242F002021A63986EE9
:101A500010F008000CD14FF40063074901E0013B8E
:101A600008D08A6E12F0080FF9D070470120704735
:101A7000002070470120704700060E4038B1114920
:101A80000B6A114A1A40114B13430B6270470D4AFF
:101A9000136A23F45C1323F0030343F45C1343F051
:101AA0000103090289B20B431362936E13F0010F15
:101AB000FBD0044A136A43F09B7343F480331362F0
:101AC000704700BF00060E40FCFFC8FE0200370151
:101AD000024B986E00F48030704700BF00060E4045
:101AE0004FF00052014B9A62704700BF00060E4053
:101AF000024B986E00F00200704700BF00060E40D7
:101B00002C2820D81F280DD8124B9A690123834016
:101B10001A40934219D0012303FA00F00D4B1861CB
:101B2000002070470B4BD3F8082120380123834055
:101B30001A4093420BD0012303FA00F0054BC3F87F
:101B400000010020704701207047002070470020EE
:101B5000704700BF00060E4020B1054A054BC3F890
:101B6000E4207047044A034BC3F8E420704700BFE9
:101B700001434D5000060E4000434D50F0B48CB070
:101B800007460E4601AC124D0FCD0FC40FCD0FC44A
:101B900095E8070084E807006A46002352F8044FDE
:101BA000B6FBF4F4B4FBF7F4B4F5807F03D901334A
:101BB0000B2BF3D104E00A2B05D844EA032004E000
:101BC0004FF6FF7001E04FF6FF700CB0F0BC7047AD
:101BD000A46F080070B506460C46086840B18968D5
:101BE0000B4B984705464FF6FF73984201D10EE024
:101BF0000025606840B1A168054B98474FF6FF7318
:101C0000984204D045EA00453560002070BD70BDA3
:101C10007D1B080070B40B688C8A4A6802F00F02C2
:101C200014430D892C438A7A44EA42248A7D44EA8B
:101C30000244CA7D44EA42440A7E44EA824400EBFC
:101C40004312C2F80042CC68C2F804420C69C2F8E0
:101C50000C428A7D3AB18C8B4A8B42EA044400EBF9
:101C60004312C2F81842856C4FF001129A40D243D9
:101C70001540CE7F9E408C7F9C4044EA06442C4316
:101C80008464446C224091F821509D4091F820409A
:101C90009C4044EA05442243426401229A4091F860
:101CA00022401CB1046A1443046203E0046A24EA7B
:101CB0000204046291F82440012C846E0CBF14438A
:101CC0009443846691F82540012C846E0CBF44EA4D
:101CD000024224EA02428266032B0CD8C46EDB0067
:101CE000FF229A4024EA020291F8231001FA03F33A
:101CF0001343C3660CE0043B046FDB00FF229A40F1
:101D000024EA020291F8231001FA03F31343036754
:101D1000002070BC704700BF10B40C680B69934280
:101D200006D3CA6000EB4410C0F80822002001E08E
:101D30004FF6FF705DF8044B704700BF012303FAB4
:101D400001F14160704700BF012303FA01F1816096
:101D5000704700BF10B4AC2303600A684B68B2FB45
:101D6000F3F31B095C1E4FF6FE7294420AD803621D
:101D70008B68436040F20223C0F820315023036097
:101D8000002000E001205DF8044B7047436913F028
:101D9000020F1ABFC161002001207047436913F090
:101DA000010F1DBF83690B7000200120704700BF29
:101DB000436913F0020F1DBFC1F30801C161002088
:101DC00001207047436913F0010F05D08369C3F305
:101DD00008030B600020704701207047FEE700BF3A
:101DE00010B51E4B1E4A9A4203D01E4B1B4A9A4204
:101DF00004D31D4B1D4A9A420FD31AE01C4B1D4CB5
:101E0000E41A24F0030404340023144814495A58F3
:101E10001A500433A342FAD1EBE7174B1749C91AFA
:101E200021F003011A1D1144002243F8042F8B42B4
:101E3000FBD1134A22F0604323F07F0311498B60EA
:101E400002F16042B2F5801F03D28A6842F000526C
:101E50008A600D4B98470D4B9847FEE7000007201E
:101E600084720800EC010720CC850720F0010720D0
:101E700004000720EF010720EC010720C785072099
:101E80000000080000ED00E045390800D5370800E3
:101E90003E4B1B6B03F00303032B5FD8DFE803F01B
:101EA000020E2B2B3A4B5B6913F0800F14BF4FF4DB
:101EB00000424FF4FA42374B1A604FE0334B1B6A33
:101EC00013F0807F03D0344A324B1A6046E0334A25
:101ED000304B1A602D4B1B6A03F07003102B02D09D
:101EE000202B04D03AE02E4A2A4B1A6036E02A4AC8
:101EF000284B1A6032E0254B1B6A13F0807F03D019
:101F0000254A244B1A6012E0244A224B1A601F4BC8
:101F10001B6A03F07003102B02D0202B04D006E0C4
:101F20001F4A1C4B1A6002E01B4A1A4B1A60174BDF
:101F30001B6B03F00303022B0DD1144B986A996AB3
:101F4000144BC0F30A401A6800FB0222C9B2B2FB6C
:101F5000F1F21A6002E0134A0E4B1A600B4B1B6B36
:101F600003F07003702B07D10A4B1A680E49A1FBCE
:101F7000020252081A607047044B196B054BC1F3FB
:101F800002111A68CA401A60704700BF00060E406E
:101F9000101A0E4040010720001BB70000093D0049
:101FA00000127A00001C4E0EABAAAAAA094B1B68AD
:101FB00013B9094A074B1A60064B1B681A180749E0
:101FC000914204DB1046034A1060184670474FF0F8
:101FD000FF30704704030720D0A50720FC7F0820AE
:101FE0004FF0FF30704700BF4FF400534B600020AC
:101FF000704700BF012070470020704700F10803C0
:1020000043604FF0FF328260C360036100230360CE
:10201000704700BF00230361704700BF43685A68E0
:102020004A6042688A605A689160596041600861FC
:10203000036801330360704710B40C68B4F1FF3FCC
:1020400001D103690AE000F10803C26812689442F2
:1020500004D35B685A6812689442FAD25A684A609C
:1020600091608B60596008610368013303605DF81B
:10207000044B7047436882689A60836842685A607C
:1020800003695A68824204BF82685A600022026172
:102090001A68013A1A601868704700BF0348006860
:1020A000006880F3088862B600DF00BF08ED00E03A
:1020B0004FF0807340F8043C40F8081C002340F8BF
:1020C0000C3C40F8202C4038704700BF064B196884
:1020D0000868B0E8F00F80F309884FF0000080F343
:1020E00011884EF00D0E70471C8407204FF080526F
:1020F000014B1A60704700BF04ED00E0EFF3118060
:102100004FF0A00181F311887047002008B5034B00
:102110009847034B1A6801321A6008BDFD20080079
:102120004401072080F31188704700BF08B5044AB6
:102130001368013B136013B90020024B984708BD98
:102140004401072025210800EFF309800C4B1A6891
:1021500020E9F00F10602DE908404FF0A00080F357
:10216000118800F0AFFE4FF0000080F31188BDE849
:10217000084019680868B0E8F00F80F309887047D4
:102180001C84072008B54FF08052054B1A60054BA0
:102190009847054B98470020044B984708BD00BF5F
:1021A00004ED00E0FD200800892B0800252108002F
:1021B000034A044B1A600722043B1A60704700BFB1
:1021C0001F48010014E000E010B5094B1A6842F402
:1021D00070021A601A6842F070421A60054B984704
:1021E0000024054B1C60054B9847204610BD00BFDE
:1021F00020ED00E0B1210800440107209D200800E7
:1022000030B4134A1368834201D21A46FAE71146E2
:1022100054681519854203D1686804445460104617
:1022200042688418A3420CD10A4C24689C4206D010
:102230005B681A4442600B681B68036002E003603D
:1022400000E00360814218BF086030BC704700BFE7
:102250000C8307200883072038B50446284B98478D
:10226000284B1B689BB9284A284B136000215160FA
:1022700047F6F0729818234D286047F6F4755951C7
:1022800099505A601860224B1A68103A1A60002C54
:102290002DD004F1100212F0070F1CBF22F007022C
:1022A0000832511E47F6FE73994222D816490C682F
:1022B00063689A4204D9236813B121461C46F7E7A4
:1022C000104B1B689C4216D00D68103523680B60BC
:1022D00063689B1A202B04D9A018436062600D4BE1
:1022E00098470B4B1A686168521A1A6004E000257F
:1022F00002E0002500E00025074B9847284638BD3E
:10230000592B0800088307200C83072008030720A7
:102310004801072001220800A92C080010B5044636
:1023200068B1074B9847074B196854F80C2C0A44BE
:102330001A60A4F11000044B9847044B984710BD55
:10234000592B08004801072001220800A92C080089
:1023500010B50446036C3BB903681BBB4068134BC4
:102360009847002363601DE06AB980681A46104BE5
:102370009847A268236C1344A3606268934211D308
:102380002368A3600EE0C0681A46094B9847226C88
:102390005242E3681344E36021688B4202D26368CF
:1023A0001A44E260A36B0133A36310BDDD31080062
:1023B0009139080038B5034605685DB1026CC46800
:1023C0001444C4604068844228BFDD600846D96870
:1023D000014B984738BD00BF91390800F8B5044655
:1023E0001D4B9847A36C002B12DD636A83B104F187
:1023F00024061A4D1A4F01E0636A4BB13046A847D4
:1024000000B1B847A36C013BA364A36C002BF3DCC1
:102410004FF0FF33A364134B98470F4B9847636CFF
:10242000002B12DD236983B104F110060B4D0C4F14
:1024300001E023694BB13046A84700B1B847636C4F
:10244000013B6364636C002BF3DC4FF0FF33636488
:10245000044B9847F8BD00BF0D210800F92F080074
:10246000293108002D21080038B50D46044618B959
:10247000164B984700BFFDE7154B98472368226C21
:10248000E06B00FB02F0191861600021A163A360FA
:10249000821A1344E3604FF0FF336364A36455B9B9
:1024A00023697BB104F110000A4B9847012809D138
:1024B000094B984706E004F11000084DA84704F1C5
:1024C0002400A847064B9847012038BDFD2008008E
:1024D0000D210800F92F0800ED200800FD1F08005D
:1024E0002D210800F8B50D461746064688B1502044
:1024F0000E4B9847044660B105FB06F001300B4BCC
:102500009847206040B92046094B984701E000BF3A
:10251000FDE7084B9847FAE7E6632564204601216A
:10252000054B984784F84D702046F8BD59220800A5
:102530001D230800FD200800692408002DE9F04F44
:1025400085B08A4601929B46044618B9364B984797
:1025500000BFFDE709B9036C1BB90027334E344DAA
:1025600003E0314B984700BFFDE7B047A26BE36B38
:102570009A4212D2204651465A462E4B9847636AD9
:102580003BB104F124002C4B9847012801D12B4B7F
:102590009847274B9847012043E0019B1BB9244BE8
:1025A000984700203DE01FB902A8254B9847012716
:1025B000A847244B9847B047636CB3F1FF3F04BF73
:1025C00000236364A36CB3F1FF3F04BF0023A36443
:1025D000A84702A801A91C4B9847E0B9B047D4F816
:1025E0003890D4F83C80A847C1450ED104F11000C2
:1025F0000199164B98472046154B9847154B98471D
:102600000028B2D10D4B9847AFE72046104B9847B2
:10261000104B9847A9E720460D4B98470D4B98471C
:10262000002005B0BDE8F08FFD2008000D21080056
:102630002D21080051230800F92F0800ED20080083
:102640007D300800592B0800A5300800552F0800E0
:10265000DD230800A92C08002DE9F0410E4615469F
:102660009846044618B91C4B984700BFFDE729B9A6
:10267000036C1BB1184B984700BFFDE7164B9847FA
:102680000746A26BE36B9A4218D220463146424677
:10269000124B9847A36CB3F1FF3F0AD1636A7BB139
:1026A00004F124000E4B984760B16DB101242C60F9
:1026B0000BE0A36C0133A364012406E0002404E0D2
:1026C000012402E0012400E001243846054B98472C
:1026D0002046BDE8F08100BFFD200800512308001E
:1026E000F92F0800252108002DE9F04F85B0894613
:1026F00001929A46044618B9444B984700BFFDE73B
:1027000009B9036C2BB90027414EDFF834B1414DB4
:1027100003E03E4B984700BFFDE7B047A36B002B9B
:1027200028D0E568204649463B4B9847BAF1000F50
:1027300012D1A36B013BA363236813B9374B9847AE
:102740006060236993B104F11000354B984701286C
:102750000CD1344B984709E0E560636A33B104F16A
:1027600024002F4B984708B12E4B9847294B984788
:10277000012048E0019B1BB9264B9847002042E00E
:1027800017B902A8D8470127A847274B9847B04751
:10279000636CB3F1FF3F04BF00236364A36CB3F128
:1027A000FF3F04BF0023A364A84702A801A91F4B51
:1027B000984710BBB047D4F83880A847B8F1000F4D
:1027C00015D1236823B9B0476068194B9847A847CB
:1027D00004F124000199174B98472046164B98475F
:1027E000164B9847002898D10E4B984795E72046FE
:1027F000114B9847114B98478FE720460E4B98474F
:102800000E4B9847002005B0BDE8F08FFD20080072
:102810000D2108002D210800B523080035310800DE
:10282000F92F0800ED200800592B0800A5300800FA
:1028300061310800552F0800DD230800A92C08008D
:102840007D30080038B504460D460D4B9847636C43
:10285000B3F1FF3F04BF00236364A36CB3F1FF3FF8
:1028600004BF0023A364074B9847A36B23B904F16B
:1028700024002946044B98472046044B984738BD0E
:102880000D2108002D210800B52F0800DD230800C8
:1028900010B504460E4B1B6858600E4B1B689842DF
:1028A00007D20D4B18680A4B196804310B4B984737
:1028B00010BD0B4B1868064B19680431074B98473D
:1028C000084B1B689C423CBF064B1C6010BD00BF00
:1028D0001C840720388407203C8407203920080006
:1028E0002C8307204C0107202DE9F84F0E46174690
:1028F0009A460A9DDDF83080814618B9624B9847A8
:1029000000BFFDE7082D03D95F4B984700BFFDE7E7
:102910004C205E4B98470446002800F0B180B8F187
:10292000000F40F0A980B800584B9847206318B9B1
:102930002046574B9847A3E0A521BA00554B98472E
:1029400007F18047013F236B03EB870323F0070B5D
:1029500004F1340031460A224F4B9847002384F893
:102960003D30082D34BF2E460826E662A664271D9A
:102970003846DFF87081C04704F11800C047246171
:10298000C6F10906A6616462584649465246434B61
:102990009847206010F0070F03D03B4B984700BFCB
:1029A000FDE70B9B03B11C603D4B98473D4B1A68FC
:1029B00001321A603C4B1B682BBB3B4B1C60394BF4
:1029C0001B68012B29D1394E06F1B409DFF8E080EC
:1029D0003046C04714364E45FAD1DFF80C914846D0
:1029E000334EB047DFF804814046B0473148B04726
:1029F0003148B0473148B047314BC3F80090314BB4
:102A0000C3F8008009E0304B1B6833B9264B1B68C4
:102A1000DB6A9D4224BF244B1C60E36A2B4A126888
:102A2000934284BF294A1360294A11682164013105
:102A30001160284A1268934284BF264A136003EB50
:102A400083031A4800EB83003946234B9847234BF6
:102A500098471D4B1B684BB1134B1B68DB6A9D42AB
:102A600007D91F4B98470120BDE8F88F0120BDE82A
:102A7000F88F0120BDE8F88FC0F8308040465BE752
:102A80004FF0FF30BDE8F88FFD2008005922080004
:102A90001D230800A3390800153B0800B1200800D9
:102AA0000D2108005C8407201C8407206483072014
:102AB000FD1F080020840720388307201883072083
:102AC0002C8307203C840720308307206084072064
:102AD00040840720608307201D2008002D21080066
:102AE000ED20080015200800448407204C830720AF
:102AF00010B584B0002300930193029303930E4812
:102B00000E4982220E4CA04701280ED10D4B98474A
:102B100001280AD10C4B984701220C4B1A60002265
:102B20000B4B1A600B4B984704E018B9064B9847BB
:102B300000BFFDE704B010BD412E0800E46F08009F
:102B4000E9280800D5320800FD200800308307205E
:102B500038840720C9210800024B1A6801321A6024
:102B6000704700BF1884072010B5044B9847044BEA
:102B70001C68044B9847204610BD00BF0D2108007B
:102B8000388407202D2108002DE9F0413A4B1B68BD
:102B9000002B6BD1394B1A6801321A601B6803BBDA
:102BA000374B1B681B681BB1364B984700BFFDE7CE
:102BB000334B1968344A106818601160334A116841
:102BC000013111601B681B6823B94FF0FF32304B95
:102BD0001A6006E02A4B1B68DB68DB685A682C4BDE
:102BE0001A60264B1A682A4B1B689A4242D3244B20
:102BF0001B681B684BB1224B1B68DB68DC68636891
:102C00001E4A1268934213D90EE04FF0FF32204B58
:102C10001A60BDE8F0811A4B1B68DB68DC686368EA
:102C2000164A1268934207D9194A1360BDE8F08129
:102C3000184E194FDFF86C80251D2846B047A36A4F
:102C400013B104F11800B047E36A3A68934288BFB1
:102C50003B6003EB830008EB800029460F4B98474D
:102C6000074B1B681B68002BD5D1CEE70C4B1A68AD
:102C700001321A60BDE8F0811884072038840720EB
:102C80002C830720FD2008003C8407203484072083
:102C90004C01072075200800608307201D200800D4
:102CA00014830720648307202DE9F843314B1B6808
:102CB0001BB9314B984700BFFDE7304B98472D4B70
:102CC0001A68013A1A601B68002B48D12C4B1B680C
:102CD000002B46D00025DFF8D4802A4F2A4E1DE075
:102CE000D8F80C30DC6804F11800B84704F1040986
:102CF0004846B847E36A3268934288BF336003EBC3
:102D00008303224800EB83004946214B9847214B1F
:102D10001B68E26ADB6A9A4228BF0125D8F80030B6
:102D2000002BDDD11C4B1B6863B11B4B1B687BB1B7
:102D30001A4D194CA8472368013B23602368002BD8
:102D4000F8D105E0012D03D0154B1B68012B0AD1EA
:102D50000022134B1A60134B9847012404E000240F
:102D600002E0002400E000240F4B98472046BDE815
:102D7000F88300BF18840720FD2008000D210800FB
:102D80005C84072075200800608307206483072087
:102D90001D2008001C84072014830720892B0800AD
:102DA00058840720ED2008002D21080020840720EA
:102DB00038B50C46054618B9194B984700BFFDE7D2
:102DC00019B9174B984700BFFDE7164B98472B687A
:102DD0001C44154A1268934207D9A3421CD9124BCE
:102DE0001B682C609C420FD906E0A34212D80E4B00
:102DF0001B689C420ED80FE00C4B186804300C4B3B
:102E0000984720460B4B98470B4B984730B90B4BD4
:102E1000984738BD2C60EFE72C60F5E738BD00BF60
:102E2000FD200800592B0800388407201C84072047
:102E30007520080091280800A92C0800ED20080042
:102E400080B5154D154EDFF878801CE0144B98477F
:102E5000144B1C68144B9847ACB1144B9847114B5A
:102E6000DB68DC68201D124B9847124B1A68013A48
:102E70001A602B68013B2B600F4B9847206B0F4F5C
:102E8000B8472046B8472B68002BDFD13368012BA9
:102E9000F9D9C047F7E700BF3483072064830720D0
:102EA000592B080038830720A92C08000D210800A1
:102EB000752008005C8407202D2108001D230800D0
:102EC000ED20080008B51D4B1B685BB91C4B1B6847
:102ED00003EB83039B001B4AD358CBB9184B1B68E9
:102EE00053B905E00122184B1A6008BD1A682AB9C7
:102EF000164B984700BFFDE7114B12491A68013A7B
:102F00001A601A6802EB820251F82220002AEDD0E2
:102F10000B4B1B6803EB83030A4A02EB83035A68DB
:102F200052685A6003F108018A4204BF52685A602D
:102F30005B68DA68064B1A6008BD00BF188407207A
:102F4000608307206483072058840720FD20080041
:102F50001C84072038B50C4618B90E4B984700BFA3
:102F6000FDE70D4D296818310C4B9847286804304F
:102F70000B4B9847B4F1FF3F05D12968094804314C
:102F8000094B984738BD094B18682044084B9847AF
:102F900038BD00BFFD2008001C8407203920080030
:102FA00075200800188307201D200800388407209A
:102FB0009128080038B50D4618B9094B984700BF4D
:102FC000FDE7084C21681831074B9847206804300A
:102FD000064B9847064B18682844064B984738BD5F
:102FE000FD2008001C8407201D2008007520080013
:102FF000388407209128080038B5C368DC681CB9FC
:10300000164B984700BFFDE704F118052846144BFE
:103010009847144B1B689BB9251D2846104B9847B1
:10302000E36A114A1268934284BF0F4A136003EBAC
:1030300083030E4800EB830029460D4B984703E0BD
:103040000C4829460A4B98470B4B1B68E06ADB6A21
:10305000984234BF0020012038BD00BFFD20080089
:1030600075200800188407206083072064830720E8
:103070001D200800208407201C84072008B518B9EB
:10308000054B984700BFFDE7044A12680260044AF6
:103090001268426008BD00BFFD200800348407208C
:1030A0003884072038B50D46044618B9184B9847A0
:1030B00000BFFDE719B9164B984700BFFDE7154B58
:1030C00098472B68B3F1FF3F19D0134A1168226863
:1030D0008A4204D0114A116862688A4211D90F4AA3
:1030E00011686268891A8B420DD90C490968521A15
:1030F00013442B6020460A4B9847002404E0002428
:1031000002E0012400E00124064B9847204638BD28
:10311000FD2008000D210800348407203884072092
:103120007D3008002D2108000122014B1A607047F4
:1031300058840720014B1868704700BF1C84072083
:10314000054B1B6833B1054B1B68002B14BF0220D5
:103150000120704700207047308307201884072023
:1031600038B5044600282ED0C36A174A1268D26ABE
:10317000934228D2144A1268D26AC2F109028261CB
:1031800003EB8303114A02EB830342699A4216D18F
:10319000051D28460E4B98470B4B1B68DB6AE36204
:1031A0000C4A1268934284BF0A4A136003EB8303FC
:1031B000064800EB83002946074B984738BD024B71
:1031C0001B68DB6AC36238BD1C8407206483072048
:1031D00075200800608307201D20080038B50446CC
:1031E000D0B1C26A836C9A4216D0051D28460B4B9B
:1031F0009847A36CE362C3F10902A261084A12680E
:10320000934284BF064A136003EB8303054800EB37
:1032100083002946044B984738BD00BF752008003D
:1032200060830720648307201D20080010B5044632
:103230004160206191420AD8D21A81698A4211D232
:103240000A4B1868211D0A4B9847002010BD9A426E
:1032500001D2994208D2074B1868211D044B9847A8
:10326000002010BD012010BD012010BD9884072052
:10327000392008006484072070B50D4B98470D4B2A
:103280001B688BB90C4D28460C4EB0470C4C2046A1
:10329000B0470C4B1D600C4B1C6005200C2100221C
:1032A0000A4B9847034B1860094B984770BD00BF05
:1032B0000D2108009484072068840720FD1F080062
:1032C0007C8407206484072098840720E524080074
:1032D0002D21080010B584B00B4B98470B4B1B6891
:1032E00063B10823009300230193029303930848DA
:1032F00008494FF48272084CA04718B9074B984709
:1033000000BFFDE704B010BD7932080094840720A7
:1033100029340800F06F0800E9280800FD200800A3
:1033200010B584B00F4C2468C4B10191029203908F
:103330006BB90D4B984701280A4B186801A907BFC4
:10334000069A002300221346084CA04707E02046B7
:1033500001A91A460023064CA04700E0002004B053
:1033600010BD00BF94840720413108003D250800AE
:10337000592608002DE9F04782B08146224B984734
:103380008046224B1B68984234D2214E214F24E0C4
:10339000DA68D2F800A0DB68DC68251D2846B8474B
:1033A000636A20469847E369012B16D1A369534409
:1033B000534506D96360246130682946164B984707
:1033C0000BE000230093204619465246134CA047B9
:1033D00018B9134B984700BFFDE733681A68002AF5
:1033E000D6D1104A11680A48016013600123C9F858
:1033F000003002E00023C9F80030044BC3F800801D
:10340000404602B0BDE8F087692B08009084072091
:103410006484072075200800392008002133080043
:10342000FD200800988407202DE9F04387B04D4D1A
:10343000DFF860814C4B1B681A68002A00F0878017
:10344000DB681E68494B984703A8494B98470746D5
:10345000039B002B30D1864224D8464B9847424BE1
:103460001B68DB68DC68201DC047E369012B14D1B1
:10347000A169204631443A4633463F4FB8470128B8
:103480000BD1002300932046194632463B4EB047ED
:1034900018B93B4B984700BFFDE7636A2046984741
:1034A0000CE000262868F11B364B9847314B9847B3
:1034B00020B9354B984701E02E4B984702A82C4B7A
:1034C00098470746314EDFF8B09038E0059C1CB1B4
:1034D000616909B1201DC047039902291FD0032942
:1034E0002AD000292BD1049BA169204619443A46D1
:1034F000C847012823D1636A20469847E369012B16
:103500001DD1A2690023009320461946049C224441
:103510001A4CA04798B91A4B984700BFFDE7049989
:10352000A16119B9164B984700BFFDE72046394401
:103530003A463B46C84702E02046154B9847286864
:1035400003A900221346B0470028BFD172E7074BFA
:10355000984703A8064B98470746039B002BA0D02B
:10356000AAE700BF9484072064840720592B080031
:1035700075330800A92C08002D32080021330800FB
:10358000FD20080045280800ED200800E926080075
:103590001D2308007520080000B583B013480DF105
:1035A00007010122124B984772B6BFF35F8F0022CA
:1035B000104B1A70104B1A7801321A700F4B1B788F
:1035C0009DF807100E4AD1549B2B03D100220B4BC0
:1035D0001A7002E00133094A13700122054B1A7078
:1035E000BFF35F8F62B603B05DF804FB0080094053
:1035F000ED1308003C010720398507203885072096
:103600009C840720F0B583B004460D460023019347
:103610001F4B984207D11F461E4E38462946B047D9
:103620000028FAD119E01C4B984209D11F461B4EC5
:10363000384601A9B0470028FAD1019B2B7019E048
:10364000174B984209D11E46144C304601A9A04799
:103650000028FAD1019B2B7018E0124B9C4209D133
:103660001E460E4C304601A9A0470028FAD1019B06
:103670002B700BE00C4B9C4208D11E46074C304689
:1036800001A9A0470028FAD1019B2B7003B0F0BD1F
:1036900000080E409D1D080000800940C51D08005F
:1036A00000C0094000000A4000400A4070B50C46C6
:1036B000214B984207D11E46204D30462146A8474F
:1036C0000028FAD12BE01E4B984207D11E461D4D13
:1036D00030462146A8470028FAD122E01A4B9842EA
:1036E00007D11E46174D30462146A8470028FAD17B
:1036F00019E0164B984207D11E46124D304621461E
:10370000A8470028FAD110E0114B98420FD11E466D
:103710000C4D30462146A8470028FAD109E0012087
:1037200070BD012070BD012070BD012070BD002062
:1037300070BD012070BD00BF00080E408D1D080047
:1037400000800940B11D080000C0094000000A4087
:1037500000400A4030B585B00820134DA847134CEF
:10376000134B1C60134A144B1A60144A144B1A6012
:10377000144B01934FF4E13302934FF4006303932E
:103780000820A847204601A90F4B98470F4D2B68EA
:10379000986800210E4CA0472B6858680021A0476C
:1037A000002005B030BD00BF011B080000080E401E
:1037B000C4850720AD360800C085072005360800FF
:1037C000BC85072000BD0105551D0800B00107207C
:1037D000E539080010B584B0404B9847404B9847F6
:1037E000404B9847404B9847404B9847404B984731
:1037F000404B9847404B9847404B9847404B984721
:10380000404B9847032300930023019302930393B3
:103810003D483E494FF480623D4CA047012802D00C
:103820003C483D4B984701230093002301930293AA
:1038300003933A483A494FF48062354CA047012837
:1038400002D03848344B9847052300930023019356
:1038500002930393344832494FF480622C4CA047C2
:10386000012802D02F482C4B9847022300930023B5
:103870000193029303932D4829494FF48062244C0D
:10388000A047012802D02748234B984704230093E0
:103890000023019302930393254826494FF4806245
:1038A0001B4CA047012802D023481B4B98470523F7
:1038B0000093002301930293039320481D494FF482
:1038C0008062134CA047012802D01B48124B984736
:1038D0001B4B9847002004B010BD00BF891308009F
:1038E00045150800D91208001104080055370800D2
:1038F000A1090800810108004D020800B901080073
:10390000850208007D030800AD0B0800F86F080071
:10391000E92808000C700800B5390800790408008F
:10392000347008004870080069110800D1070800C9
:10393000E50908006C70080074700800C90A0800E6
:10394000F12A080070B50E4B0E4D0024ED1AAD1093
:103950001E46AC4204D056F8242090470134F8E7C4
:1039600003F080FC084D094B0024ED1AAD101E46F3
:10397000AC4204D056F8242090470134F8E770BDDB
:10398000707208007072080074720800707208008B
:1039900010B50023934203D0CC5CC4540133F9E743
:1039A00010BD02440346934202D003F8011BFAE71C
:1039B000704700000FB40A4B13B51C6824B1A3690B
:1039C00013B9204601F022FE05AB2046A168049AF7
:1039D000019300F0D9F802B0BDE8104004B0704780
:1039E000B001072000290CBF022200224FF480639F
:1039F00000F000B82DE9F0411E463D4B04461D681D
:103A00000F46904625B1AB6913B9284601F0FEFD7B
:103A1000384B9C4201D16C6808E0374B9C4201D185
:103A2000AC6803E0354B9C4208BFEC68B8F1020F6C
:103A300059D8002E57DB2846214601F069FD0023A6
:103A40006360A361A3891B0603D52846216902F0A0
:103A50009FF9A389B8F1020F23F08303A38112D049
:103A600037BB002E08BF4FF48066304601F088FE59
:103A70000746C8B94FF4806001F082FE074688B956
:103A80004FF0FF3000E00020A38943F00203A38140
:103A90000023A36004F147032360236101236361D2
:103AA000BDE8F0814FF48066A38943F08003A381D1
:103AB000B8F1010F05D1A38943F00103A38173423B
:103AC000A3610F4BAB62A389276003F0080080B2AB
:103AD0002761666148B113F0030F18BF0026A66086
:103AE0000020BDE8F0814FF0FF30BDE8F08100BF5D
:103AF000B0010720FC7008001C7108003C71080030
:103B000065550800034613F8012B002AFBD1181A4B
:103B10000138704710B5034632B111F8014B013A34
:103B200003F8014B002CF7D11A44934203D0002133
:103B300003F8011BF9E710BD936810B5013B002B9A
:103B4000936005DA9469A34208DBCBB20A2B05D057
:103B50001368581C10601970C8B210BDBDE8104041
:103B600000F03EBDF8B505460E461446D718BC42D7
:103B700008D0284614F8011B3246FFF7DDFF431C2E
:103B8000F5D100E00020F8BD2DE9F0439DB00D46D1
:103B900017460393064618B183690BB901F036FD49
:103BA000734B9D4201D1756808E0724B9D4201D173
:103BB000B56803E0704B9D4208BFF568AB891807F4
:103BC0000AD52B6943B10023099320238DF82930AE
:103BD00030238DF82A3038E03046294600F054FD75
:103BE0000028F0D04FF0FF30BEE0039A111D12689C
:103BF0000391002A70DB0792013423782E2B7DD0AD
:103C00005E4F21783846032201F0C2FD30B1C71B58
:103C10004020B840049B0134034304932178584862
:103C20000622671C8DF8281001F0B2FD002800F074
:103C30008980544B002B7CD1039B073323F007036F
:103C400008330393099B434409933B461C4613F8EE
:103C5000012B1AB9B4EB07090ED002E0252AF5D1E1
:103C6000F8E7304629463A464B46FFF77BFF0130DE
:103C700075D0099B4B4409932378002B6FD0002308
:103C80004FF0FF3204930793059206938DF853305B
:103C90001A9304F101093C4F4C463846217805221D
:103CA00001F076FD09F10109049B28B1C71B012031
:103CB000B84003430493EEE7D90644BF20228DF8B1
:103CC00053201A0744BF2B228DF8532022782A2A2A
:103CD0008BD0079B214605E0524243F00203079236
:103CE000049389E70C4622780131303A092A03D837
:103CF0000A2000FB0323F5E707937EE763782A2B6E
:103D000009D1039B02341A1D1B680392002BB8BF14
:103D10004FF0FF330BE0611C00230C462278013189
:103D2000303A092A03D80A2000FB0323F5E705935C
:103D300066E703AB0093304604A92A46134B00F014
:103D4000BBF807E003AB0093304604A92A460F4BAB
:103D500000F032FBB0F1FF3F80467FF473AFAB89D8
:103D60005B063FF53FAF09981DB0BDE8F08300BF8B
:103D7000FC7008001C7108003C710800AE7008005F
:103D8000B2700800B93E0800A8700800653B080042
:103D90002DE9F047002B88B014461D46109E12995D
:103DA000139F05DA05F100431D4614462D2300E05C
:103DB00000230B70149B23F0200ABAF1460F04D0A5
:103DC000BAF1450F03D1013601E0032300E00223DD
:103DD0008DE8C80006AB039307AB049322462B463D
:103DE00000F052FDBAF1470F804602D1119BDB076C
:103DF00025D5BAF1460F08EB06090FD198F8003027
:103E0000302B09D1204629460022002302F056FD1E
:103E100010B9C6F101063E603B6899442046294628
:103E20000022002302F04AFD08B1CDF81C90079B48
:103E30004B4504D25A1C079230221A70F7E7079BB1
:103E40004046C8EB0302159B1A6008B0BDE8F08736
:103E500073B50346002903F8022B03DA49421A46D8
:103E60002D2401E01A462B24092944701BDD0DF195
:103E700006040A2691FBF6F506FB1511092D01F142
:103E80003001234604F801192946F2DC05F130011E
:103E900003F8011D0DF107018B420AD213F8011B33
:103EA00002F8011BF6E730241A46214402F8024BBF
:103EB0005970101A02B070BD2DE9F04F8FB00C464A
:103EC00016461F46DDF86090054601F009FCD0F863
:103ED00000A05046FFF716FE00230C93D9F80030DF
:103EE0000990073323F0070303F10802D3E9000127
:103EF00094F81880C9F80020C4E9120101F0E0FF2D
:103F00000128D4E9120117D10022002302F0E0FCBD
:103F100010B12D2384F84330904B914AB8F1470FEC
:103F20008CBF9146994603232361236823F0040341
:103F300023604FF0000B86E001F0C2FF236848B910
:103F4000884A8949B8F1470F8CBF894691460322B8
:103F50002261EBE7626828F0200B511C01D1062298
:103F600004E0BBF1470F02D10AB901226260606828
:103F700043F480618DE80300D4E912230DF12B0096
:103F800002900BA803900CA80590002021600690D9
:103F9000CDF810802846FFF7FBFEBBF1470F8146A6
:103FA0000B9909D1C81C02DB6368994230DDA8F186
:103FB00002085FFA88F802E0B8F1650F12D80139FB
:103FC000424604F150000B91FFF742FF0C9A8346E2
:103FD0008318012A236102DC2268D2072DD5013320
:103FE00023612AE0B8F1660F14D10029636807DD68
:103FF000216113B92268D0071CD501330B4418E0A6
:1040000013B92268D20701D5023312E0012310E070
:104010004FF067080C9A914205DB23682161D807AD
:1040200008D54B1C05E00029D4BFC1F102030123D0
:1040300013442361A1654FF0000B9DF82B3013B1A1
:104040002D2384F843300097284621460DAA334695
:1040500000F040F9013002D14FF0FF3036E1236823
:104060005A0504D4284631464A46236908E1B8F186
:10407000650F40F2CB80D4E912010022002302F048
:104080001DFC00282AD028463146384A0123B8476B
:104090000130E1D00C9B0B9A9A4207DB2368D807CA
:1040A00004D423689B0700F1F880FDE028463146E0
:1040B0005246099BB8470130CED04FF000080C9B08
:1040C000013B9845EDDA2846314604F11A020123F6
:1040D000B8470130C0D008F10108F0E70B9B002B76
:1040E00028DC28463146214A0123B8470130B3D0A5
:1040F0000B9B23B90C9B13B92368D907D1D528464C
:1041000031465246099BB8470130A5D04FF0000810
:104110000B9B28465B429845314608DA04F11A02A7
:104120000123B847013097D008F10108F0E74A466B
:104130000C9BA5E0A36D0C9A9A42B4BF93469B4694
:10414000BBF1000F02DC4FF000081CE028463146AE
:104150004A465B46B8470130F5D17DE7B9700800A3
:10416000BD700800C1700800C5700800C970080063
:104170002846314604F11A020123B84701303FF4C2
:104180006BAF08F10108A36D2BEAEB729A1A904508
:10419000EEDB09EB03080B9A0C9B9A420FDB2368BA
:1041A000DA070CD40C9B0B9A9944C8EB09099B1AAB
:1041B0009945A8BF9946B9F1000F08DC0FE02846E1
:1041C00031465246099BB8470130EBD144E72846B7
:1041D000314642464B46B84701303FF43DAF4FF0C1
:1041E00000080AE02846314604F11A020123B847C4
:1041F00001303FF431AF08F101080B9B0C9A29EA1A
:10420000E971D31A5B1A9845ECDB4AE70C9A012A4C
:1042100001DCDB0739D5284631464A460123B84739
:1042200001303FF419AF284631465246099BB84742
:1042300001303FF411AFD4E912010022002302F053
:104240003DFB10B14FF0000811E00C9B28463146B1
:1042500009F10102013B1CE02846314604F11A0233
:104260000123B84701303FF4F7AE08F101080C9B79
:10427000013B9845F0DB2846314604F150025B468D
:10428000B84701307FF40DAFE6E6284631464A468E
:104290000123B8470130EED1DEE64FF00008E268B6
:1042A0000D9BD31A984505DBE0680D9B9842B8BF7B
:1042B00018460BE02846314604F119020123B8479D
:1042C00001303FF4C9AE08F10108E8E70FB0BDE8DE
:1042D000F08F00BF2DE9F84315461F468A680B6929
:1042E00006469A42A8BF13462B6091F843200C461D
:1042F000DDF820800AB101332B602368990602D5CE
:104300002B6802332B60236813F006091DD094F844
:1043100043302268003318BF012392061FD5E118ED
:10432000302081F843005A1C94F84510224402338F
:1043300082F8431013E03046394604F11902012394
:10434000C047013007D009F10109E2682B68D31A90
:104350009945F0DBDBE74FF0FF30BDE8F8833046EE
:10436000394604F14302C0470130F4D023682A687B
:1043700003F00603E168042B08BFC2EB01052369C3
:10438000A2680CBF25EAE57500259A42C4BFC3EBBD
:104390000203ED184FF00009A9450ADA3046394604
:1043A00004F11A020123C0470130D4D009F10109F8
:1043B000F2E70020BDE8F8832DE9FF470E7E804636
:1043C0006E2E0C4691469A460C9D01F1430000F07A
:1043D000A58011D8632E22D009D8002E00F0AF801E
:1043E000582E40F0BF8081F845607B4A4FE0642E34
:1043F0001ED0692E1CD0B5E0732E00F0A48009D821
:104400006F2E2BD0702E40F0AD800B6843F0200350
:104410000B6038E0752E21D0782E34D0A2E02B68C6
:1044200001F142071A1D1B682A6081F842309DE0A5
:1044300022682B6812F0800F03D01A1D2A601D68B5
:1044400005E05106F9D51A1D2A60B3F90050002D78
:1044500039DA2D236D4284F8433034E022682B682A
:1044600012F0800F03D01A1D2A601D6804E0520666
:10447000F9D51A1D2A601D88237E574A6F2B14BF59
:104480000A2308231BE07823544A84F84530236824
:10449000296813F0800F01F104062E6001D00D6829
:1044A00002E05F06FBD50D88DE0744BF43F0200322
:1044B00023601DB9236823F020032360102300210B
:1044C00084F8431001E0444A0A236668002EA6607F
:1044D00003DB216821F00401216005B96EB104F10C
:1044E0004201B5FBF3F603FB1655555D0F4601F887
:1044F00001593546002EF4D100E00746082B0AD1B9
:104500002368DD0707D5626823699A4203DC3023FC
:1045100007F8013C013FC01B20612CE009682B68B3
:1045200011F0800F626904D0191D29601B681A60A0
:1045300005E04906F8D5191D29601B681A8000237B
:104540002361074617E02B681A1D2A601F6838464A
:10455000FFF7D8FA63682061984288BF2361236916
:10456000636005E004F1420784F84260012323619F
:10457000002384F84330CDF800A04046214603AA2A
:104580004B46FFF7A7FE013002D14FF0FF301FE08E
:10459000404649463A462369D0470130F5D0236862
:1045A0009B0705D4E068039B9842B8BF18460FE00C
:1045B0000025E268039BD31A9D42F3DA4046494640
:1045C00004F119020123D0470130DED00135F0E7B4
:1045D00004B0BDE8F08700BFCB700800DC700800B5
:1045E00070B50E461446054618B183690BB901F043
:1045F0000DF8224B9C4201D16C6808E0204B9C4294
:1046000001D1AC6803E01F4B9C4208BFEC68A36972
:10461000A360A3891A0709D523693BB123692068E0
:10462000F6B2C01A636998420FDB08E028462146BB
:1046300000F02AF80028F1D04FF0FF3070BD284676
:10464000214600F065FF0028F6D1A3680130013B48
:10465000A36023685A1C22601E706369984204D0CC
:10466000A389DB0707D50A2E05D12846214600F08D
:104670004FFF0028E0D1304670BD00BFFC7008003D
:104680001C7108003C710800324B70B51D6806466D
:104690000C4625B1AB6913B9284600F0B7FF2E4B85
:1046A0009C4201D16C6808E02C4B9C4201D1AC6863
:1046B00003E02B4B9C4208BFEC68A28993B2190718
:1046C00020D4DD0605D4092342F040023360A281E4
:1046D0003BE0580712D5616B41B104F144039942A4
:1046E00002D0304601F054FB00236363A38923F01A
:1046F0002403A3810023636023692360A38943F01B
:104700000803A38123694BB9A38903F42073B3F58C
:10471000007F03D03046214600F0E6FFA38913F066
:10472000010205D00022A26062695242A26103E048
:10473000990758BF6269A26022694AB903F08000F4
:1047400080B230B143F04003A3814FF0FF3070BD21
:10475000002070BDB0010720FC7008001C7108002B
:104760003C7108002DE9F74F03690C698046A342AC
:10477000C0F28380013CA20001F1140700F114058E
:104780009146009257F824602A44019255F824205B
:104790000136B2FBF6F6B944002E3BD04FF0000EC6
:1047A0003A462846F34652F804CB03681FFA8CFABF
:1047B0004FEA1C4C0AFB06EA0CFB06FC0CEB1A4CFD
:1047C0001FFA8AFACAEB0B0B4FEA1C4E1FFA83FA48
:1047D0001FFA8CFCDA44CCEB134C0CEB2A4C1FFA7E
:1047E0008AFA4AEA0C4A4A454FEA2C4B40F804AB95
:1047F000D9D9009AAB586BB9019A131FAB421A462C
:1048000002D8C8F8104005E01268043B002AF8D12D
:10481000013CF3E7404601F0DEF900282BDB0136CE
:104820002B46002057F804CB1A681FFA8CF1411A66
:104830001FFA82FA4FEA1C4C5144CCEB124202EBB5
:10484000214289B210144F4541EA024243F8042B39
:10485000E8D955F8242005EB840362B9043BAB4248
:104860001A4602D8C8F8104005E01268043B002A36
:10487000F8D1013CF3E7304600E0002003B0BDE88A
:10488000F08F0000000000002DE9F04F456A9BB05A
:104890008246279CCDE9042345B9102000F070FF23
:1048A000CAF82400456085600560C560DAF82430E8
:1048B000196861B15B6801224B6002FA03F350464C
:1048C0008B6000F0A8FFDAF8243000221A60059807
:1048D000002805DA012320F000412360059101E062
:1048E00000232360059F9C4A27F000431B0D1B05F6
:1048F00093421DD1269A42F20F731360049B43B971
:10490000964B974AC7F3130000280CBF1046184671
:1049100000E09248289F002F00F07185C37813B102
:1049200000F1080300E0C31C289F3B6000F067BD56
:10493000DDE90445002220462946002301F0BEFFA0
:10494000804658B1269F01233B60289F002F00F02E
:10495000538584483860013800F051BD19AB00938D
:1049600018AB0193504622462B4601F0B0F9C7F32D
:104970000A5683465EB1C5F3130343F07F512046C8
:1049800041F44011A6F2FF36CDF854801CE0199B8B
:10499000189E1E446FF482639E4209DB04991F3304
:1049A00006F212409B1B21FA00F09F40384304E0BE
:1049B0006D48049A801B02FA00F001F0A1FC012767
:1049C000A1F1F871013E15970022684B01F05AFBE6
:1049D0005BA3D3E9002301F009FD5BA3D3E9002326
:1049E00001F052FB044630460D4601F099FC58A3F5
:1049F000D3E9002301F0FAFC02460B462046294683
:104A000001F042FB04460D4601F08AFF294681462B
:104A100000222046002301F05BFF58B1484601F018
:104A20007FFC02460B462046294601F047FF08B9A5
:104A300009F1FF39B9F1160F0DD84D4B03EBC9033E
:104A4000D3E90001DDE9042301F060FF30B109F191
:104A5000FF39002700E00127149700E01490189B0D
:104A60009E1B013E099604D57742089700270997B7
:104A700001E000270897B9F1000F07DB099FCDF887
:104A800044904F44099700270E9708E0089FC9EB10
:104A900007070897C9F100070E9700271197249F71
:104AA000092F29D8052FC4BF043F2497249FC8BFCE
:104AB0000025A7F10203D8BF0125032B21D8DFE889
:104AC00003F0060F0204012702E0012709E0002796
:104AD0000F97259F002F1EDD0B9707973B461FE082
:104AE00000270F97259F4F440B9701373B460797A9
:104AF000012BB8BF012313E00125002724970F9550
:104B000001E001270F974FF0FF370B97079700271A
:104B10001223259704E001270B9707973B4625971B
:104B2000DAF8244000226260042101F114029A4262
:104B300020D86268490001326260F6E7AFF3008076
:104B400061436F63A787D23FB3C8608B288AC63F93
:104B5000FB799F501344D33F0000F07FF6700800AC
:104B6000ED700800CA700800EEFBFFFF0000F83F80
:104B7000687108005046616800F018FEDAF82430C9
:104B80002060079F1B680E2F0A9300F26B81002D97
:104B900000F06881B9F1000FDDE90401CDE91201EF
:104BA00031DD814A09F00F0302EBC3034FEA2914F8
:104BB000D3E90001CDE90C01E0060CD5DDE91201D5
:104BC0007A4B04F00F04D3E9082301F039FD0327E1
:104BD000CDE9040100E00227744D6CB1E10708D56E
:104BE000DDE90C01D5E9002301F000FCCDE90C0161
:104BF000013764100835F0E7DDE90401DDE90C2335
:104C000001F01EFD1BE0C9F10004DCB1664B04F0AD
:104C10000F0203EBC203DDE91201D3E9002301F027
:104C2000E5FB624D241102274CB1E20704D5D5E91A
:104C30000023013701F0DAFB64100835F4E7CDE911
:104C4000040100E002271499E9B1DDE904450022DE
:104C500020462946564B01F03BFEC8B1079AE2B107
:104C60000B9B002B40F3FA8009F1FF30109029468E
:104C7000204600224F4B01F0B9FBCDE904010B990E
:104C800001370C910DE0079ACDF840900C9208E0A6
:104C9000079BCDF840900C9303E00798CDF8409027
:104CA0000C90384601F03CFBDDE9042301F09EFB4B
:104CB0000022414B01F0E8F90C9F0446A1F1507528
:104CC000CFB900223D4BDDE9040101F0DBF92246BA
:104CD0002B4606460F4601F019FE002840F053828D
:104CE000224605F100433046394601F0F1FD002827
:104CF00040F03F82B2E00C9F2B4B7A1E0F9F03EBDC
:104D0000C203002F5ED0D3E9002300202C4901F01C
:104D100097FC22462B4601F0B5F9DDE90467DDF882
:104D2000288004460D463946304601F0F9FD0290D0
:104D300001F0F6FA02460B463046394601F0A2F978
:104D4000DDF808C022460CF1300308F8013B2B4681
:104D500006460F4601F0BCFD002840F03B8332467A
:104D60003B460020124901F08DF922462B4601F006
:104D7000AFFD002840F0D5800A980C99C0EB0803DD
:104D80008B426BDA2046294600220A4B01F02EFBAB
:104D9000002204460D4630463946064B01F026FBFC
:104DA00006460F46BFE700BF687108003072080072
:104DB0000000F03F0000244000001C4000001440B0
:104DC0000000E03F2246D3E900012B4601F00EFB34
:104DD000DDE90467DDF828800C9ACDE916010A9C0C
:104DE00090443946304601F09BFD054601F098FAA3
:104DF00002460B463046394601F044F9303504F896
:104E0000015B444506460F4621D10022874BDDE970
:104E1000160101F039F902460B463046394601F0D9
:104E200075FD00287DD1DDE9162300207F4901F0C2
:104E300029F902460B463046394601F049FD68B172
:104E4000A04618F8013C013C302BF9D0C2E2002208
:104E5000774B01F0CBFA06460F46C2E7DDE91201B7
:104E6000CDE90401199B002B7CDBB9F10E0F79DC35
:104E7000704B259F03EBC903002FD3E9004514DADB
:104E8000079F002F11DC40F0768120462946002242
:104E9000694B01F0ABFADDE9042301F02DFD079D1C
:104EA0002C46002840F0698171E1DDF82880DDE9B9
:104EB000046722462B463046394601F0C1FB01F01B
:104EC0002FFD049001F02CFA22462B4601F08EFAB9
:104ED00002460B463046394601F0D4F8049F02469C
:104EE00007F130060A9F08F8016BC7EB0806079F19
:104EF0000B46BE4229D101F0C7F822462B46064692
:104F00000F4601F003FD70B93046394622462B4664
:104F100001F0D4FC002800F05F82049FFB0702D45C
:104F20005AE2DDF840904346984618F8012C013BC0
:104F3000392A06D10A9F9F42F6D1302209F1010990
:104F40003A701A7801321A7046E20022384B01F0AA
:104F50004DFA0022002306460F4601F0AFFC002860
:104F6000A7D039E20F9F002F30D0249F012F0ADCF9
:104F7000159F17B103F2334302E0189BC3F13603C8
:104F80000E9D089E16E0079F7D1E0E9FAF4201DB1F
:104F90007D1B06E00E9F0E95EB1B119F00251F4405
:104FA0001197079F002F03DA08980023C61B01E022
:104FB000089E079B089F50461F440897099F0121A0
:104FC0001F44099700F0C5FC044602E00E9D089EB0
:104FD0000F9C6EB1099F002F0ADD3B46089FB3422C
:104FE000A8BF3346FF1A0897099FF61AFF1A0997B8
:104FF0000E9F002F28DD0F9F07B3002D10DD2146E7
:105000002A46504600F046FD04465A462146504680
:1050100000F0A8FC59460746504600F0FCFBBB4692
:105020000E9F7A1B10D0504659460AE00000E03F20
:105030000000244068710800000014400E9A504699
:10504000594600F027FD83465046012100F081FCBF
:10505000119F0546002F05DD294650463A4600F0CF
:1050600019FD0546249F012F12DC049880B905998B
:10507000C1F3130373B921F000473F0D3F0557B14A
:10508000089F01370897099F01370997012702E018
:10509000002700E0049F119840B12B6905EB8303C2
:1050A000186900F009FCC0F1200000E00120099B14
:1050B000034413F01F030FD0C3F12002042A09DDBB
:1050C0000899099AC3F11C0319441A4408911E4413
:1050D000099209E008D01346089809991C3318442E
:1050E000194408901E440991089A002A04DD594683
:1050F000504600F01DFD8346099B002B05DD294627
:1051000050461A4600F014FD05461498E0B1584682
:10511000294600F060FD002816DA594650460A225A
:10512000002300F08FFB0F9909F1FF39834649B145
:1051300021460A225046002300F084FB0B9A0446C5
:10514000079201E00B9B07930798002829DC24991C
:10515000022926DD88B929460522079B504600F022
:1051600071FB05462946584600F035FD00280EDC47
:1051700003E00C9D00E000252C46259FDDF82880EB
:105180006FEA07090AE00C9DDDF840902C460A9F63
:10519000312307F101083B7009F10109274600247A
:1051A00007E10F98002800F0BB80002E05DD2146A6
:1051B0005046324600F0BCFC04469FB16168504640
:1051C00000F0F4FA22690646023204F10C01920062
:1051D0000C30FEF7DDFB50463146012200F0A8FC02
:1051E000074600E027460A9E29465846FFF7BAFAC6
:1051F000214600F1300C80465846CDF808C000F03A
:10520000EAFC3A4608902946504600F001FDC36882
:105210000246DDF808C04BB911465846039200F02B
:10522000DAFC039A0346DDF808C000E0012350468B
:1052300011460393CDF808C000F0EDFA039BDDF8AA
:1052400008C063B9249951B9049800F0010232B939
:10525000BCF1390F35D0089B002B24DC25E00898E1
:10526000002802DA002B08DC1FE023D1249909BBB7
:10527000049800F00102EAB9F4E7594601225046C9
:10528000CDF808C000F054FC2946834600F0A3FC8A
:105290000028DDF808C003DC07D11CF0010F04D0A2
:1052A000BCF1390F0DD008F1310C06F1010886F878
:1052B00000C07EE0002B06F1010809DDBCF1390FCA
:1052C00003D13923337001365BE00CF1010368E050
:1052D0000A99079AC1EB08034646934206F801CCA7
:1052E0003CD059460A220023504600F0ABFABC429B
:1052F0008346214650464FF00A024FF0000304D186
:1053000000F0A0FA044607466EE700F09BFA394623
:1053100004460A225046002300F094FA074663E749
:105320000F9E58462946FFF71DFA0A9F00F1300CE0
:1053300007F806C0079F0136BE4207DB0A9E012F11
:10534000ACBFF61901362746002407E059465046FF
:105350000A22002300F076FA8346E2E7594601224A
:105360005046CDF808C000F0E3FB2946834600F024
:1053700032FC0028DDF808C003DC14D11CF0010F5A
:1053800011D016F8013CB046392B06F1FF3607D193
:105390000A98B042F5D1312309F10109037008E000
:1053A0000133337005E0B04618F8013C013E302B64
:1053B000F9D05046294600F02EFA6FB12CB1BC420C
:1053C00003D05046214600F026FA5046394600F0F8
:1053D00022FA01E0DDF840905046594600F01BFAF1
:1053E0000023269F88F8003009F101033B60289FC5
:1053F00027B1C7F8008001E0024800E00A981BB01E
:10540000BDE8F08FC97008008A892DE9F041054692
:1054100010070C4657D44B68002B02DC0B6C002B9A
:1054200018DDE66AB6B102F48052002392B22F680A
:105430002B600AB1626D10E0216A28460123B04753
:10544000411C024609D12B683BB11D2B01D0162B04
:1054500046D12F600020BDE8F081A3895B0705D508
:105460006368D21A636B0BB1236CD21AE66A2846C2
:10547000216A0023B047461CA28905D12B681BB1C5
:105480001D2B01D0162B19D1002363602369D10491
:10549000236004D5421C01D12B6803B96065616BA0
:1054A0002F600029D6D004F14403994202D0284647
:1054B00000F06EFC00206063BDE8F08142F0400225
:1054C000A281BDE8F0810E69002EC3D00B680E608A
:1054D000C6EB030893070CBF4B6900238B6012E0F7
:1054E000A3894FF0FF3043F04003A381BDE8F08172
:1054F000A76A2846216A32464346B8470028EFDDAE
:105500000644C0EB0808B8F1000FF1DCA2E7000088
:1055100038B50B6905460C46DBB118B183690BB988
:1055200000F074F80C4B9C4201D16C6808E00B4B06
:105530009C4201D1AC6803E0094B9C4208BFEC6877
:10554000B4F90C302BB128462146BDE83840FFF7AE
:105550005BBF002038BD00BFFC7008001C71080054
:105560003C710800F8B5074600F1480494B1A568FD
:105570006668013E0CD4AB89012B07D9B5F90E3012
:10558000013303D038462946FFF7C2FF6835F0E7FC
:105590002468EBE7F8BD0000002310B50446036063
:1055A0004360836081814366C2810361436183619B
:1055B00019465C300822FEF7F4F9054B2462636259
:1055C000044BA362044BE362044B236310BD00BF92
:1055D000255F0800475F08007F5F0800A35F0800A1
:1055E00070B54B1E68255D430E4605F1740100F051
:1055F00013FC044640B1002180E842000C30A0605A
:1056000005F16802FEF7CDF9204670BD836910B53B
:10561000044633BB8364C3640365124B124A1B68A0
:105620008262984204BF0123836100F01FF860602A
:10563000204600F01BF8A060204600F017F8042177
:10564000E06000226068FFF7A7FFA068092101223F
:10565000FFF7A2FFE06812210222FFF79DFF01235E
:10566000A36110BDA470080065550800F8B51B4B78
:1056700007461E68B36913B93046FFF7C7FF4836BF
:10568000B4687368013B04D4B4F90C5075B1683444
:10569000F8E733682BB938460421FFF7A1FF3060E3
:1056A00008B13668ECE70C233B60F8BD4FF6FF739A
:1056B000E3810123A38165662560A560656025619E
:1056C0006561A56104F15C0029460822FEF769F9CD
:1056D0006563A563A564E5642046F8BDA470080071
:1056E00000487047B4010720F0B58B8991B09E0740
:1056F00005460C4625D4B1F90E10002908DAA38915
:10570000002713F0800F14BF40264FF480660DE091
:1057100001AA00F06DFC0028F1DB029F4FF48066C7
:1057200007F47047B7F500514F424F4128463146C4
:1057300000F072FB60B9A3899A051DD443F00203FF
:10574000A38104F14703236023610123636113E014
:105750000A4BAB62A389206043F08003A3812061E0
:1057600066614FB12846B4F90E1000F053FC18B131
:10577000A38943F00103A38111B0F0BD6555080072
:10578000024B0146186800F047BB00BFB00107207C
:1057900010B5C9B202449042034605D01C780130CE
:1057A0008C42F8D1184610BD002010BD70B5456A76
:1057B00004460E463DB91020FFF7E2FF60624560E7
:1057C00085600560C560656AEB6843B1636ADA6845
:1057D00052F8260078B1016842F8261017E02046FA
:1057E0000421212200F0C5FA636AE860DB68002B1F
:1057F000ECD1002070BD012101FA06F56A1D20469A
:10580000920000F0B6FA0028F3D0466085600022CE
:105810000261C26070BD70B5446A06460D463CB96F
:105820001020FFF7ADFF7062446084600460C460C4
:105830003DB1736A6A68DB6853F82210296043F847
:10584000225070BD2DE9F0410C461E460D690746F9
:1058500014310023086801331FFA80FC000C02FB9E
:105860000C6C504300EB1C401FFA8CFC060CAB4246
:105870000CEB004041F8040BECDBD6B1A3689D4271
:1058800012DB616838460131FFF790FF226904F1AD
:105890000C010232804692000C30FEF779F8214666
:1058A0003846FFF7B8FF444604EB850301355E61D7
:1058B00025612046BDE8F081030C1B0413B90004E8
:1058C000102300E0002310F07F4F04BF00020833D4
:1058D00010F0704F04BF0001043310F0404F04BFBC
:1058E00080000233002803DB420003D5581C7047B8
:1058F0001846704720207047036813F007020BD04A
:10590000D90722D49A0703D55B08036001207047AA
:105910009B0803600220704799B209B91B0C102242
:1059200013F0FF0F04BF1B0A0832190704BF1B093D
:105930000432990704BF9B080232D90702D45B08DE
:1059400005D00132036010467047002070472020C8
:10595000704710B50C460121FFF728FF0122446172
:10596000026110BD2DE9F04F164633690A6985B012
:105970009A420D4601DA35460E46D5F81080376951
:10598000AB68696808EB07049C42C8BF0131FFF7A8
:105990000DFF00F1140303EB840101911A46DDF8B9
:1059A00004A0524503D2002142F8041BF7E705F199
:1059B000140106F1140201EB880802EB8707CDF809
:1059C00008800397039E1546B24256D2B5F800C030
:1059D0000432BCF1000F25D00F461D46002657F8B3
:1059E000049BD5F800801FFA89FB1FFA88FA0CFB8C
:1059F0000BAA4FEA19494FEA18480CFB0988B24430
:105A000008EB1A481FFA8AFA4AEA084A4FEA184687
:105A1000DDF80880AB46B8454BF804AB01D95D46CC
:105A2000DDE76E6032F8028CB8F1000F23D01E68FB
:105A30000F461D464FF00009B7F800A0B5F802C0A8
:105A4000B6B208FB0ACCE14446EA0946AC464CF83B
:105A5000046B57F8046BB5F804A0360C08FB06A6D7
:105A6000DDF808A006EB194657454FEA164901D262
:105A70006546E1E76E600433A4E7019B002C03DC7C
:105A8000046105B0BDE8F08F53F8042D002AF7D16A
:105A9000013CF3E712F003032DE9F04105460E4601
:105AA000174607D0214A013B52F823200023FFF775
:105AB000C9FE0646BF1035D06C6A3CB91020FFF70E
:105AC0005FFE6862446084600460C460D5F824802E
:105AD000D8F808407CB9284640F27121FFF739FF19
